{
  "contractName": "Land",
  "abi": [
    {
      "inputs": [
        {
          "internalType": "string",
          "name": "_name",
          "type": "string"
        },
        {
          "internalType": "string",
          "name": "_symbol",
          "type": "string"
        },
        {
          "internalType": "uint256",
          "name": "_cost",
          "type": "uint256"
        }
      ],
      "stateMutability": "nonpayable",
      "type": "constructor"
    },
    {
      "anonymous": false,
      "inputs": [
        {
          "indexed": true,
          "internalType": "address",
          "name": "owner",
          "type": "address"
        },
        {
          "indexed": true,
          "internalType": "address",
          "name": "approved",
          "type": "address"
        },
        {
          "indexed": true,
          "internalType": "uint256",
          "name": "tokenId",
          "type": "uint256"
        }
      ],
      "name": "Approval",
      "type": "event"
    },
    {
      "anonymous": false,
      "inputs": [
        {
          "indexed": true,
          "internalType": "address",
          "name": "owner",
          "type": "address"
        },
        {
          "indexed": true,
          "internalType": "address",
          "name": "operator",
          "type": "address"
        },
        {
          "indexed": false,
          "internalType": "bool",
          "name": "approved",
          "type": "bool"
        }
      ],
      "name": "ApprovalForAll",
      "type": "event"
    },
    {
      "anonymous": false,
      "inputs": [
        {
          "indexed": true,
          "internalType": "address",
          "name": "from",
          "type": "address"
        },
        {
          "indexed": true,
          "internalType": "address",
          "name": "to",
          "type": "address"
        },
        {
          "indexed": true,
          "internalType": "uint256",
          "name": "tokenId",
          "type": "uint256"
        }
      ],
      "name": "Transfer",
      "type": "event"
    },
    {
      "inputs": [
        {
          "internalType": "address",
          "name": "to",
          "type": "address"
        },
        {
          "internalType": "uint256",
          "name": "tokenId",
          "type": "uint256"
        }
      ],
      "name": "approve",
      "outputs": [],
      "stateMutability": "nonpayable",
      "type": "function"
    },
    {
      "inputs": [
        {
          "internalType": "address",
          "name": "owner",
          "type": "address"
        }
      ],
      "name": "balanceOf",
      "outputs": [
        {
          "internalType": "uint256",
          "name": "",
          "type": "uint256"
        }
      ],
      "stateMutability": "view",
      "type": "function",
      "constant": true
    },
    {
      "inputs": [
        {
          "internalType": "uint256",
          "name": "",
          "type": "uint256"
        }
      ],
      "name": "buildings",
      "outputs": [
        {
          "internalType": "string",
          "name": "name",
          "type": "string"
        },
        {
          "internalType": "address",
          "name": "owner",
          "type": "address"
        },
        {
          "internalType": "int256",
          "name": "posX",
          "type": "int256"
        },
        {
          "internalType": "int256",
          "name": "posY",
          "type": "int256"
        },
        {
          "internalType": "int256",
          "name": "posZ",
          "type": "int256"
        },
        {
          "internalType": "uint256",
          "name": "sizeX",
          "type": "uint256"
        },
        {
          "internalType": "uint256",
          "name": "sizeY",
          "type": "uint256"
        },
        {
          "internalType": "uint256",
          "name": "sizeZ",
          "type": "uint256"
        }
      ],
      "stateMutability": "view",
      "type": "function",
      "constant": true
    },
    {
      "inputs": [],
      "name": "cost",
      "outputs": [
        {
          "internalType": "uint256",
          "name": "",
          "type": "uint256"
        }
      ],
      "stateMutability": "view",
      "type": "function",
      "constant": true
    },
    {
      "inputs": [
        {
          "internalType": "uint256",
          "name": "tokenId",
          "type": "uint256"
        }
      ],
      "name": "getApproved",
      "outputs": [
        {
          "internalType": "address",
          "name": "",
          "type": "address"
        }
      ],
      "stateMutability": "view",
      "type": "function",
      "constant": true
    },
    {
      "inputs": [
        {
          "internalType": "address",
          "name": "owner",
          "type": "address"
        },
        {
          "internalType": "address",
          "name": "operator",
          "type": "address"
        }
      ],
      "name": "isApprovedForAll",
      "outputs": [
        {
          "internalType": "bool",
          "name": "",
          "type": "bool"
        }
      ],
      "stateMutability": "view",
      "type": "function",
      "constant": true
    },
    {
      "inputs": [],
      "name": "maxSupply",
      "outputs": [
        {
          "internalType": "uint256",
          "name": "",
          "type": "uint256"
        }
      ],
      "stateMutability": "view",
      "type": "function",
      "constant": true
    },
    {
      "inputs": [],
      "name": "name",
      "outputs": [
        {
          "internalType": "string",
          "name": "",
          "type": "string"
        }
      ],
      "stateMutability": "view",
      "type": "function",
      "constant": true
    },
    {
      "inputs": [
        {
          "internalType": "uint256",
          "name": "tokenId",
          "type": "uint256"
        }
      ],
      "name": "ownerOf",
      "outputs": [
        {
          "internalType": "address",
          "name": "",
          "type": "address"
        }
      ],
      "stateMutability": "view",
      "type": "function",
      "constant": true
    },
    {
      "inputs": [
        {
          "internalType": "address",
          "name": "operator",
          "type": "address"
        },
        {
          "internalType": "bool",
          "name": "approved",
          "type": "bool"
        }
      ],
      "name": "setApprovalForAll",
      "outputs": [],
      "stateMutability": "nonpayable",
      "type": "function"
    },
    {
      "inputs": [
        {
          "internalType": "bytes4",
          "name": "interfaceId",
          "type": "bytes4"
        }
      ],
      "name": "supportsInterface",
      "outputs": [
        {
          "internalType": "bool",
          "name": "",
          "type": "bool"
        }
      ],
      "stateMutability": "view",
      "type": "function",
      "constant": true
    },
    {
      "inputs": [],
      "name": "symbol",
      "outputs": [
        {
          "internalType": "string",
          "name": "",
          "type": "string"
        }
      ],
      "stateMutability": "view",
      "type": "function",
      "constant": true
    },
    {
      "inputs": [
        {
          "internalType": "uint256",
          "name": "tokenId",
          "type": "uint256"
        }
      ],
      "name": "tokenURI",
      "outputs": [
        {
          "internalType": "string",
          "name": "",
          "type": "string"
        }
      ],
      "stateMutability": "view",
      "type": "function",
      "constant": true
    },
    {
      "inputs": [],
      "name": "totalSupply",
      "outputs": [
        {
          "internalType": "uint256",
          "name": "",
          "type": "uint256"
        }
      ],
      "stateMutability": "view",
      "type": "function",
      "constant": true
    },
    {
      "inputs": [
        {
          "internalType": "uint256",
          "name": "_id",
          "type": "uint256"
        }
      ],
      "name": "mint",
      "outputs": [],
      "stateMutability": "payable",
      "type": "function",
      "payable": true
    },
    {
      "inputs": [
        {
          "internalType": "address",
          "name": "from",
          "type": "address"
        },
        {
          "internalType": "address",
          "name": "to",
          "type": "address"
        },
        {
          "internalType": "uint256",
          "name": "tokenId",
          "type": "uint256"
        }
      ],
      "name": "transferFrom",
      "outputs": [],
      "stateMutability": "nonpayable",
      "type": "function"
    },
    {
      "inputs": [
        {
          "internalType": "address",
          "name": "from",
          "type": "address"
        },
        {
          "internalType": "address",
          "name": "to",
          "type": "address"
        },
        {
          "internalType": "uint256",
          "name": "tokenId",
          "type": "uint256"
        }
      ],
      "name": "safeTransferFrom",
      "outputs": [],
      "stateMutability": "nonpayable",
      "type": "function"
    },
    {
      "inputs": [
        {
          "internalType": "address",
          "name": "from",
          "type": "address"
        },
        {
          "internalType": "address",
          "name": "to",
          "type": "address"
        },
        {
          "internalType": "uint256",
          "name": "tokenId",
          "type": "uint256"
        },
        {
          "internalType": "bytes",
          "name": "_data",
          "type": "bytes"
        }
      ],
      "name": "safeTransferFrom",
      "outputs": [],
      "stateMutability": "nonpayable",
      "type": "function"
    },
    {
      "inputs": [],
      "name": "getBuildings",
      "outputs": [
        {
          "components": [
            {
              "internalType": "string",
              "name": "name",
              "type": "string"
            },
            {
              "internalType": "address",
              "name": "owner",
              "type": "address"
            },
            {
              "internalType": "int256",
              "name": "posX",
              "type": "int256"
            },
            {
              "internalType": "int256",
              "name": "posY",
              "type": "int256"
            },
            {
              "internalType": "int256",
              "name": "posZ",
              "type": "int256"
            },
            {
              "internalType": "uint256",
              "name": "sizeX",
              "type": "uint256"
            },
            {
              "internalType": "uint256",
              "name": "sizeY",
              "type": "uint256"
            },
            {
              "internalType": "uint256",
              "name": "sizeZ",
              "type": "uint256"
            }
          ],
          "internalType": "struct Land.Building[]",
          "name": "",
          "type": "tuple[]"
        }
      ],
      "stateMutability": "view",
      "type": "function",
      "constant": true
    },
    {
      "inputs": [
        {
          "internalType": "uint256",
          "name": "_id",
          "type": "uint256"
        }
      ],
      "name": "getBuilding",
      "outputs": [
        {
          "components": [
            {
              "internalType": "string",
              "name": "name",
              "type": "string"
            },
            {
              "internalType": "address",
              "name": "owner",
              "type": "address"
            },
            {
              "internalType": "int256",
              "name": "posX",
              "type": "int256"
            },
            {
              "internalType": "int256",
              "name": "posY",
              "type": "int256"
            },
            {
              "internalType": "int256",
              "name": "posZ",
              "type": "int256"
            },
            {
              "internalType": "uint256",
              "name": "sizeX",
              "type": "uint256"
            },
            {
              "internalType": "uint256",
              "name": "sizeY",
              "type": "uint256"
            },
            {
              "internalType": "uint256",
              "name": "sizeZ",
              "type": "uint256"
            }
          ],
          "internalType": "struct Land.Building",
          "name": "",
          "type": "tuple"
        }
      ],
      "stateMutability": "view",
      "type": "function",
      "constant": true
    }
  ],
  "bytecode": "0x6080604052670de0b6b3a7640000600655600560075560006008553480156200002757600080fd5b5060405162003dc138038062003dc183398181016040528101906200004d919062000935565b8282816000908162000060919062000c10565b50806001908162000072919062000c10565b5050508060068190555060096040518061010001604052806040518060400160405280600981526020017f436974792048616c6c00000000000000000000000000000000000000000000008152508152602001600073ffffffffffffffffffffffffffffffffffffffff168152602001600081526020016000815260200160008152602001600a8152602001600a8152602001600a815250908060018154018082558091505060019003906000526020600020906008020160009091909190915060008201518160000190816200014a919062000c10565b5060208201518160010160006101000a81548173ffffffffffffffffffffffffffffffffffffffff021916908373ffffffffffffffffffffffffffffffffffffffff16021790555060408201518160020155606082015181600301556080820151816004015560a0820151816005015560c0820151816006015560e08201518160070155505060096040518061010001604052806040518060400160405280600781526020017f5374616469756d000000000000000000000000000000000000000000000000008152508152602001600073ffffffffffffffffffffffffffffffffffffffff16815260200160008152602001600a815260200160008152602001600a8152602001600581526020016003815250908060018154018082558091505060019003906000526020600020906008020160009091909190915060008201518160000190816200029e919062000c10565b5060208201518160010160006101000a81548173ffffffffffffffffffffffffffffffffffffffff021916908373ffffffffffffffffffffffffffffffffffffffff16021790555060408201518160020155606082015181600301556080820151816004015560a0820151816005015560c0820151816006015560e08201518160070155505060096040518061010001604052806040518060400160405280600a81526020017f556e6976657273697479000000000000000000000000000000000000000000008152508152602001600073ffffffffffffffffffffffffffffffffffffffff168152602001600081526020017ffffffffffffffffffffffffffffffffffffffffffffffffffffffffffffffff6815260200160008152602001600a81526020016005815260200160038152509080600181540180825580915050600190039060005260206000209060080201600090919091909150600082015181600001908162000411919062000c10565b5060208201518160010160006101000a81548173ffffffffffffffffffffffffffffffffffffffff021916908373ffffffffffffffffffffffffffffffffffffffff16021790555060408201518160020155606082015181600301556080820151816004015560a0820151816005015560c0820151816006015560e08201518160070155505060096040518061010001604052806040518060400160405280601081526020017f53686f7070696e6720506c617a612031000000000000000000000000000000008152508152602001600073ffffffffffffffffffffffffffffffffffffffff168152602001600a81526020016000815260200160008152602001600581526020016019815260200160058152509080600181540180825580915050600190039060005260206000209060080201600090919091909150600082015181600001908162000565919062000c10565b5060208201518160010160006101000a81548173ffffffffffffffffffffffffffffffffffffffff021916908373ffffffffffffffffffffffffffffffffffffffff16021790555060408201518160020155606082015181600301556080820151816004015560a0820151816005015560c0820151816006015560e08201518160070155505060096040518061010001604052806040518060400160405280601081526020017f53686f7070696e6720506c617a612032000000000000000000000000000000008152508152602001600073ffffffffffffffffffffffffffffffffffffffff1681526020017ffffffffffffffffffffffffffffffffffffffffffffffffffffffffffffffff6815260200160008152602001600081526020016005815260200160198152602001600581525090806001815401808255809150506001900390600052602060002090600802016000909190919091506000820151816000019081620006d8919062000c10565b5060208201518160010160006101000a81548173ffffffffffffffffffffffffffffffffffffffff021916908373ffffffffffffffffffffffffffffffffffffffff16021790555060408201518160020155606082015181600301556080820151816004015560a0820151816005015560c0820151816006015560e08201518160070155505050505062000cf7565b6000604051905090565b600080fd5b600080fd5b600080fd5b600080fd5b6000601f19601f8301169050919050565b7f4e487b7100000000000000000000000000000000000000000000000000000000600052604160045260246000fd5b620007d08262000785565b810181811067ffffffffffffffff82111715620007f257620007f162000796565b5b80604052505050565b60006200080762000767565b9050620008158282620007c5565b919050565b600067ffffffffffffffff82111562000838576200083762000796565b5b620008438262000785565b9050602081019050919050565b60005b838110156200087057808201518184015260208101905062000853565b60008484015250505050565b6000620008936200088d846200081a565b620007fb565b905082815260208101848484011115620008b257620008b162000780565b5b620008bf84828562000850565b509392505050565b600082601f830112620008df57620008de6200077b565b5b8151620008f18482602086016200087c565b91505092915050565b6000819050919050565b6200090f81620008fa565b81146200091b57600080fd5b50565b6000815190506200092f8162000904565b92915050565b60008060006060848603121562000951576200095062000771565b5b600084015167ffffffffffffffff81111562000972576200097162000776565b5b6200098086828701620008c7565b935050602084015167ffffffffffffffff811115620009a457620009a362000776565b5b620009b286828701620008c7565b9250506040620009c5868287016200091e565b9150509250925092565b600081519050919050565b7f4e487b7100000000000000000000000000000000000000000000000000000000600052602260045260246000fd5b6000600282049050600182168062000a2257607f821691505b60208210810362000a385762000a37620009da565b5b50919050565b60008190508160005260206000209050919050565b60006020601f8301049050919050565b600082821b905092915050565b60006008830262000aa27fffffffffffffffffffffffffffffffffffffffffffffffffffffffffffffffff8262000a63565b62000aae868362000a63565b95508019841693508086168417925050509392505050565b6000819050919050565b600062000af162000aeb62000ae584620008fa565b62000ac6565b620008fa565b9050919050565b6000819050919050565b62000b0d8362000ad0565b62000b2562000b1c8262000af8565b84845462000a70565b825550505050565b600090565b62000b3c62000b2d565b62000b4981848462000b02565b505050565b5b8181101562000b715762000b6560008262000b32565b60018101905062000b4f565b5050565b601f82111562000bc05762000b8a8162000a3e565b62000b958462000a53565b8101602085101562000ba5578190505b62000bbd62000bb48562000a53565b83018262000b4e565b50505b505050565b600082821c905092915050565b600062000be56000198460080262000bc5565b1980831691505092915050565b600062000c00838362000bd2565b9150826002028217905092915050565b62000c1b82620009cf565b67ffffffffffffffff81111562000c375762000c3662000796565b5b62000c43825462000a09565b62000c5082828562000b75565b600060209050601f83116001811462000c88576000841562000c73578287015190505b62000c7f858262000bf2565b86555062000cef565b601f19841662000c988662000a3e565b60005b8281101562000cc25784890151825560018201915060208501945060208101905062000c9b565b8683101562000ce2578489015162000cde601f89168262000bd2565b8355505b6001600288020188555050505b505050505050565b6130ba8062000d076000396000f3fe60806040526004361061011f5760003560e01c806370a08231116100a0578063b88d4fde11610064578063b88d4fde14610405578063c87b56dd1461042e578063d5abeb011461046b578063d9cf6a2614610496578063e985e9c5146104c15761011f565b806370a082311461031b57806395d89b41146103585780639dfd8b0214610383578063a0712d68146103c0578063a22cb465146103dc5761011f565b806318160ddd116100e757806318160ddd1461021d57806323b872dd1461024857806342842e0e146102715780634c96a0621461029a5780636352211e146102de5761011f565b806301ffc9a71461012457806306fdde0314610161578063081812fc1461018c578063095ea7b3146101c957806313faede6146101f2575b600080fd5b34801561013057600080fd5b5061014b60048036038101906101469190611ecb565b6104fe565b6040516101589190611f13565b60405180910390f35b34801561016d57600080fd5b506101766105e0565b6040516101839190611fbe565b60405180910390f35b34801561019857600080fd5b506101b360048036038101906101ae9190612016565b610672565b6040516101c09190612084565b60405180910390f35b3480156101d557600080fd5b506101f060048036038101906101eb91906120cb565b6106b8565b005b3480156101fe57600080fd5b506102076107cf565b604051610214919061211a565b60405180910390f35b34801561022957600080fd5b506102326107d5565b60405161023f919061211a565b60405180910390f35b34801561025457600080fd5b5061026f600480360381019061026a9190612135565b6107db565b005b34801561027d57600080fd5b5061029860048036038101906102939190612135565b6108ab565b005b3480156102a657600080fd5b506102c160048036038101906102bc9190612016565b6108cb565b6040516102d59897969594939291906121a1565b60405180910390f35b3480156102ea57600080fd5b5061030560048036038101906103009190612016565b6109cb565b6040516103129190612084565b60405180910390f35b34801561032757600080fd5b50610342600480360381019061033d9190612226565b610a7c565b60405161034f919061211a565b60405180910390f35b34801561036457600080fd5b5061036d610b33565b60405161037a9190611fbe565b60405180910390f35b34801561038f57600080fd5b506103aa60048036038101906103a59190612016565b610bc5565b6040516103b7919061237a565b60405180910390f35b6103da60048036038101906103d59190612016565b610d32565b005b3480156103e857600080fd5b5061040360048036038101906103fe91906123c8565b610e74565b005b34801561041157600080fd5b5061042c6004803603810190610427919061253d565b610e8a565b005b34801561043a57600080fd5b5061045560048036038101906104509190612016565b610f5c565b6040516104629190611fbe565b60405180910390f35b34801561047757600080fd5b50610480610fc4565b60405161048d919061211a565b60405180910390f35b3480156104a257600080fd5b506104ab610fca565b6040516104b89190612732565b60405180910390f35b3480156104cd57600080fd5b506104e860048036038101906104e39190612754565b61114e565b6040516104f59190611f13565b60405180910390f35b60007f80ac58cd000000000000000000000000000000000000000000000000000000007bffffffffffffffffffffffffffffffffffffffffffffffffffffffff1916827bffffffffffffffffffffffffffffffffffffffffffffffffffffffff191614806105c957507f5b5e139f000000000000000000000000000000000000000000000000000000007bffffffffffffffffffffffffffffffffffffffffffffffffffffffff1916827bffffffffffffffffffffffffffffffffffffffffffffffffffffffff1916145b806105d957506105d8826111e2565b5b9050919050565b6060600080546105ef906127c3565b80601f016020809104026020016040519081016040528092919081815260200182805461061b906127c3565b80156106685780601f1061063d57610100808354040283529160200191610668565b820191906000526020600020905b81548152906001019060200180831161064b57829003601f168201915b5050505050905090565b600061067d8261124c565b6004600083815260200190815260200160002060009054906101000a900473ffffffffffffffffffffffffffffffffffffffff169050919050565b60006106c3826109cb565b90508073ffffffffffffffffffffffffffffffffffffffff168373ffffffffffffffffffffffffffffffffffffffff1603610733576040517f08c379a000000000000000000000000000000000000000000000000000000000815260040161072a90612866565b60405180910390fd5b8073ffffffffffffffffffffffffffffffffffffffff16610752611297565b73ffffffffffffffffffffffffffffffffffffffff16148061078157506107808161077b611297565b61114e565b5b6107c0576040517f08c379a00000000000000000000000000000000000000000000000000000000081526004016107b7906128f8565b60405180910390fd5b6107ca838361129f565b505050565b60065481565b60085481565b6107ec6107e6611297565b82611358565b61082b576040517f08c379a00000000000000000000000000000000000000000000000000000000081526004016108229061298a565b60405180910390fd5b81600960018361083b91906129d9565b8154811061084c5761084b612a0d565b5b906000526020600020906008020160010160006101000a81548173ffffffffffffffffffffffffffffffffffffffff021916908373ffffffffffffffffffffffffffffffffffffffff1602179055506108a68383836113ed565b505050565b6108c683838360405180602001604052806000815250610e8a565b505050565b600981815481106108db57600080fd5b90600052602060002090600802016000915090508060000180546108fe906127c3565b80601f016020809104026020016040519081016040528092919081815260200182805461092a906127c3565b80156109775780601f1061094c57610100808354040283529160200191610977565b820191906000526020600020905b81548152906001019060200180831161095a57829003601f168201915b5050505050908060010160009054906101000a900473ffffffffffffffffffffffffffffffffffffffff16908060020154908060030154908060040154908060050154908060060154908060070154905088565b6000806002600084815260200190815260200160002060009054906101000a900473ffffffffffffffffffffffffffffffffffffffff169050600073ffffffffffffffffffffffffffffffffffffffff168173ffffffffffffffffffffffffffffffffffffffff1603610a73576040517f08c379a0000000000000000000000000000000000000000000000000000000008152600401610a6a90612a88565b60405180910390fd5b80915050919050565b60008073ffffffffffffffffffffffffffffffffffffffff168273ffffffffffffffffffffffffffffffffffffffff1603610aec576040517f08c379a0000000000000000000000000000000000000000000000000000000008152600401610ae390612b1a565b60405180910390fd5b600360008373ffffffffffffffffffffffffffffffffffffffff1673ffffffffffffffffffffffffffffffffffffffff168152602001908152602001600020549050919050565b606060018054610b42906127c3565b80601f0160208091040260200160405190810160405280929190818152602001828054610b6e906127c3565b8015610bbb5780601f10610b9057610100808354040283529160200191610bbb565b820191906000526020600020905b815481529060010190602001808311610b9e57829003601f168201915b5050505050905090565b610bcd611e04565b6009600183610bdc91906129d9565b81548110610bed57610bec612a0d565b5b906000526020600020906008020160405180610100016040529081600082018054610c17906127c3565b80601f0160208091040260200160405190810160405280929190818152602001828054610c43906127c3565b8015610c905780601f10610c6557610100808354040283529160200191610c90565b820191906000526020600020905b815481529060010190602001808311610c7357829003601f168201915b505050505081526020016001820160009054906101000a900473ffffffffffffffffffffffffffffffffffffffff1673ffffffffffffffffffffffffffffffffffffffff1673ffffffffffffffffffffffffffffffffffffffff16815260200160028201548152602001600382015481526020016004820154815260200160058201548152602001600682015481526020016007820154815250509050919050565b60006008549050600754811115610d4857600080fd5b600073ffffffffffffffffffffffffffffffffffffffff166009600184610d6f91906129d9565b81548110610d8057610d7f612a0d565b5b906000526020600020906008020160010160009054906101000a900473ffffffffffffffffffffffffffffffffffffffff1673ffffffffffffffffffffffffffffffffffffffff1614610dd257600080fd5b600654341015610de157600080fd5b336009600184610df191906129d9565b81548110610e0257610e01612a0d565b5b906000526020600020906008020160010160006101000a81548173ffffffffffffffffffffffffffffffffffffffff021916908373ffffffffffffffffffffffffffffffffffffffff1602179055506001600854610e609190612b3a565b600881905550610e703383611653565b5050565b610e86610e7f611297565b8383611671565b5050565b610e9b610e95611297565b83611358565b610eda576040517f08c379a0000000000000000000000000000000000000000000000000000000008152600401610ed19061298a565b60405180910390fd5b826009600184610eea91906129d9565b81548110610efb57610efa612a0d565b5b906000526020600020906008020160010160006101000a81548173ffffffffffffffffffffffffffffffffffffffff021916908373ffffffffffffffffffffffffffffffffffffffff160217905550610f56848484846117dd565b50505050565b6060610f678261124c565b6000610f71611839565b90506000815111610f915760405180602001604052806000815250610fbc565b80610f9b84611850565b604051602001610fac929190612baa565b6040516020818303038152906040525b915050919050565b60075481565b60606009805480602002602001604051908101604052809291908181526020016000905b82821015611145578382906000526020600020906008020160405180610100016040529081600082018054611022906127c3565b80601f016020809104026020016040519081016040528092919081815260200182805461104e906127c3565b801561109b5780601f106110705761010080835404028352916020019161109b565b820191906000526020600020905b81548152906001019060200180831161107e57829003601f168201915b505050505081526020016001820160009054906101000a900473ffffffffffffffffffffffffffffffffffffffff1673ffffffffffffffffffffffffffffffffffffffff1673ffffffffffffffffffffffffffffffffffffffff168152602001600282015481526020016003820154815260200160048201548152602001600582015481526020016006820154815260200160078201548152505081526020019060010190610fee565b50505050905090565b6000600560008473ffffffffffffffffffffffffffffffffffffffff1673ffffffffffffffffffffffffffffffffffffffff16815260200190815260200160002060008373ffffffffffffffffffffffffffffffffffffffff1673ffffffffffffffffffffffffffffffffffffffff16815260200190815260200160002060009054906101000a900460ff16905092915050565b60007f01ffc9a7000000000000000000000000000000000000000000000000000000007bffffffffffffffffffffffffffffffffffffffffffffffffffffffff1916827bffffffffffffffffffffffffffffffffffffffffffffffffffffffff1916149050919050565b611255816119b0565b611294576040517f08c379a000000000000000000000000000000000000000000000000000000000815260040161128b90612a88565b60405180910390fd5b50565b600033905090565b816004600083815260200190815260200160002060006101000a81548173ffffffffffffffffffffffffffffffffffffffff021916908373ffffffffffffffffffffffffffffffffffffffff160217905550808273ffffffffffffffffffffffffffffffffffffffff16611312836109cb565b73ffffffffffffffffffffffffffffffffffffffff167f8c5be1e5ebec7d5bd14f71427d1e84f3dd0314c0f7b2291e5b200ac8c7c3b92560405160405180910390a45050565b600080611364836109cb565b90508073ffffffffffffffffffffffffffffffffffffffff168473ffffffffffffffffffffffffffffffffffffffff1614806113a657506113a5818561114e565b5b806113e457508373ffffffffffffffffffffffffffffffffffffffff166113cc84610672565b73ffffffffffffffffffffffffffffffffffffffff16145b91505092915050565b8273ffffffffffffffffffffffffffffffffffffffff1661140d826109cb565b73ffffffffffffffffffffffffffffffffffffffff1614611463576040517f08c379a000000000000000000000000000000000000000000000000000000000815260040161145a90612c40565b60405180910390fd5b600073ffffffffffffffffffffffffffffffffffffffff168273ffffffffffffffffffffffffffffffffffffffff16036114d2576040517f08c379a00000000000000000000000000000000000000000000000000000000081526004016114c990612cd2565b60405180910390fd5b6114dd838383611a1c565b6114e860008261129f565b6001600360008573ffffffffffffffffffffffffffffffffffffffff1673ffffffffffffffffffffffffffffffffffffffff168152602001908152602001600020600082825461153891906129d9565b925050819055506001600360008473ffffffffffffffffffffffffffffffffffffffff1673ffffffffffffffffffffffffffffffffffffffff168152602001908152602001600020600082825461158f9190612b3a565b92505081905550816002600083815260200190815260200160002060006101000a81548173ffffffffffffffffffffffffffffffffffffffff021916908373ffffffffffffffffffffffffffffffffffffffff160217905550808273ffffffffffffffffffffffffffffffffffffffff168473ffffffffffffffffffffffffffffffffffffffff167fddf252ad1be2c89b69c2b068fc378daa952ba7f163c4a11628f55a4df523b3ef60405160405180910390a461164e838383611a21565b505050565b61166d828260405180602001604052806000815250611a26565b5050565b8173ffffffffffffffffffffffffffffffffffffffff168373ffffffffffffffffffffffffffffffffffffffff16036116df576040517f08c379a00000000000000000000000000000000000000000000000000000000081526004016116d690612d3e565b60405180910390fd5b80600560008573ffffffffffffffffffffffffffffffffffffffff1673ffffffffffffffffffffffffffffffffffffffff16815260200190815260200160002060008473ffffffffffffffffffffffffffffffffffffffff1673ffffffffffffffffffffffffffffffffffffffff16815260200190815260200160002060006101000a81548160ff0219169083151502179055508173ffffffffffffffffffffffffffffffffffffffff168373ffffffffffffffffffffffffffffffffffffffff167f17307eab39ab6107e8899845ad3d59bd9653f200f220920489ca2b5937696c31836040516117d09190611f13565b60405180910390a3505050565b6117e88484846113ed565b6117f484848484611a81565b611833576040517f08c379a000000000000000000000000000000000000000000000000000000000815260040161182a90612dd0565b60405180910390fd5b50505050565b606060405180602001604052806000815250905090565b606060008203611897576040518060400160405280600181526020017f300000000000000000000000000000000000000000000000000000000000000081525090506119ab565b600082905060005b600082146118c95780806118b290612df0565b915050600a826118c29190612e67565b915061189f565b60008167ffffffffffffffff8111156118e5576118e4612412565b5b6040519080825280601f01601f1916602001820160405280156119175781602001600182028036833780820191505090505b5090505b600085146119a45760018261193091906129d9565b9150600a8561193f9190612e98565b603061194b9190612b3a565b60f81b81838151811061196157611960612a0d565b5b60200101907effffffffffffffffffffffffffffffffffffffffffffffffffffffffffffff1916908160001a905350600a8561199d9190612e67565b945061191b565b8093505050505b919050565b60008073ffffffffffffffffffffffffffffffffffffffff166002600084815260200190815260200160002060009054906101000a900473ffffffffffffffffffffffffffffffffffffffff1673ffffffffffffffffffffffffffffffffffffffff1614159050919050565b505050565b505050565b611a308383611c08565b611a3d6000848484611a81565b611a7c576040517f08c379a0000000000000000000000000000000000000000000000000000000008152600401611a7390612dd0565b60405180910390fd5b505050565b6000611aa28473ffffffffffffffffffffffffffffffffffffffff16611de1565b15611bfb578373ffffffffffffffffffffffffffffffffffffffff1663150b7a02611acb611297565b8786866040518563ffffffff1660e01b8152600401611aed9493929190612f1e565b6020604051808303816000875af1925050508015611b2957506040513d601f19601f82011682018060405250810190611b269190612f7f565b60015b611bab573d8060008114611b59576040519150601f19603f3d011682016040523d82523d6000602084013e611b5e565b606091505b506000815103611ba3576040517f08c379a0000000000000000000000000000000000000000000000000000000008152600401611b9a90612dd0565b60405180910390fd5b805181602001fd5b63150b7a0260e01b7bffffffffffffffffffffffffffffffffffffffffffffffffffffffff1916817bffffffffffffffffffffffffffffffffffffffffffffffffffffffff191614915050611c00565b600190505b949350505050565b600073ffffffffffffffffffffffffffffffffffffffff168273ffffffffffffffffffffffffffffffffffffffff1603611c77576040517f08c379a0000000000000000000000000000000000000000000000000000000008152600401611c6e90612ff8565b60405180910390fd5b611c80816119b0565b15611cc0576040517f08c379a0000000000000000000000000000000000000000000000000000000008152600401611cb790613064565b60405180910390fd5b611ccc60008383611a1c565b6001600360008473ffffffffffffffffffffffffffffffffffffffff1673ffffffffffffffffffffffffffffffffffffffff1681526020019081526020016000206000828254611d1c9190612b3a565b92505081905550816002600083815260200190815260200160002060006101000a81548173ffffffffffffffffffffffffffffffffffffffff021916908373ffffffffffffffffffffffffffffffffffffffff160217905550808273ffffffffffffffffffffffffffffffffffffffff16600073ffffffffffffffffffffffffffffffffffffffff167fddf252ad1be2c89b69c2b068fc378daa952ba7f163c4a11628f55a4df523b3ef60405160405180910390a4611ddd60008383611a21565b5050565b6000808273ffffffffffffffffffffffffffffffffffffffff163b119050919050565b60405180610100016040528060608152602001600073ffffffffffffffffffffffffffffffffffffffff1681526020016000815260200160008152602001600081526020016000815260200160008152602001600081525090565b6000604051905090565b600080fd5b600080fd5b60007fffffffff0000000000000000000000000000000000000000000000000000000082169050919050565b611ea881611e73565b8114611eb357600080fd5b50565b600081359050611ec581611e9f565b92915050565b600060208284031215611ee157611ee0611e69565b5b6000611eef84828501611eb6565b91505092915050565b60008115159050919050565b611f0d81611ef8565b82525050565b6000602082019050611f286000830184611f04565b92915050565b600081519050919050565b600082825260208201905092915050565b60005b83811015611f68578082015181840152602081019050611f4d565b60008484015250505050565b6000601f19601f8301169050919050565b6000611f9082611f2e565b611f9a8185611f39565b9350611faa818560208601611f4a565b611fb381611f74565b840191505092915050565b60006020820190508181036000830152611fd88184611f85565b905092915050565b6000819050919050565b611ff381611fe0565b8114611ffe57600080fd5b50565b60008135905061201081611fea565b92915050565b60006020828403121561202c5761202b611e69565b5b600061203a84828501612001565b91505092915050565b600073ffffffffffffffffffffffffffffffffffffffff82169050919050565b600061206e82612043565b9050919050565b61207e81612063565b82525050565b60006020820190506120996000830184612075565b92915050565b6120a881612063565b81146120b357600080fd5b50565b6000813590506120c58161209f565b92915050565b600080604083850312156120e2576120e1611e69565b5b60006120f0858286016120b6565b925050602061210185828601612001565b9150509250929050565b61211481611fe0565b82525050565b600060208201905061212f600083018461210b565b92915050565b60008060006060848603121561214e5761214d611e69565b5b600061215c868287016120b6565b935050602061216d868287016120b6565b925050604061217e86828701612001565b9150509250925092565b6000819050919050565b61219b81612188565b82525050565b60006101008201905081810360008301526121bc818b611f85565b90506121cb602083018a612075565b6121d86040830189612192565b6121e56060830188612192565b6121f26080830187612192565b6121ff60a083018661210b565b61220c60c083018561210b565b61221960e083018461210b565b9998505050505050505050565b60006020828403121561223c5761223b611e69565b5b600061224a848285016120b6565b91505092915050565b600082825260208201905092915050565b600061226f82611f2e565b6122798185612253565b9350612289818560208601611f4a565b61229281611f74565b840191505092915050565b6122a681612063565b82525050565b6122b581612188565b82525050565b6122c481611fe0565b82525050565b60006101008301600083015184820360008601526122e88282612264565b91505060208301516122fd602086018261229d565b50604083015161231060408601826122ac565b50606083015161232360608601826122ac565b50608083015161233660808601826122ac565b5060a083015161234960a08601826122bb565b5060c083015161235c60c08601826122bb565b5060e083015161236f60e08601826122bb565b508091505092915050565b6000602082019050818103600083015261239481846122ca565b905092915050565b6123a581611ef8565b81146123b057600080fd5b50565b6000813590506123c28161239c565b92915050565b600080604083850312156123df576123de611e69565b5b60006123ed858286016120b6565b92505060206123fe858286016123b3565b9150509250929050565b600080fd5b600080fd5b7f4e487b7100000000000000000000000000000000000000000000000000000000600052604160045260246000fd5b61244a82611f74565b810181811067ffffffffffffffff8211171561246957612468612412565b5b80604052505050565b600061247c611e5f565b90506124888282612441565b919050565b600067ffffffffffffffff8211156124a8576124a7612412565b5b6124b182611f74565b9050602081019050919050565b82818337600083830152505050565b60006124e06124db8461248d565b612472565b9050828152602081018484840111156124fc576124fb61240d565b5b6125078482856124be565b509392505050565b600082601f83011261252457612523612408565b5b81356125348482602086016124cd565b91505092915050565b6000806000806080858703121561255757612556611e69565b5b6000612565878288016120b6565b9450506020612576878288016120b6565b935050604061258787828801612001565b925050606085013567ffffffffffffffff8111156125a8576125a7611e6e565b5b6125b48782880161250f565b91505092959194509250565b600081519050919050565b600082825260208201905092915050565b6000819050602082019050919050565b600061010083016000830151848203600086015261260a8282612264565b915050602083015161261f602086018261229d565b50604083015161263260408601826122ac565b50606083015161264560608601826122ac565b50608083015161265860808601826122ac565b5060a083015161266b60a08601826122bb565b5060c083015161267e60c08601826122bb565b5060e083015161269160e08601826122bb565b508091505092915050565b60006126a883836125ec565b905092915050565b6000602082019050919050565b60006126c8826125c0565b6126d281856125cb565b9350836020820285016126e4856125dc565b8060005b858110156127205784840389528151612701858261269c565b945061270c836126b0565b925060208a019950506001810190506126e8565b50829750879550505050505092915050565b6000602082019050818103600083015261274c81846126bd565b905092915050565b6000806040838503121561276b5761276a611e69565b5b6000612779858286016120b6565b925050602061278a858286016120b6565b9150509250929050565b7f4e487b7100000000000000000000000000000000000000000000000000000000600052602260045260246000fd5b600060028204905060018216806127db57607f821691505b6020821081036127ee576127ed612794565b5b50919050565b7f4552433732313a20617070726f76616c20746f2063757272656e74206f776e6560008201527f7200000000000000000000000000000000000000000000000000000000000000602082015250565b6000612850602183611f39565b915061285b826127f4565b604082019050919050565b6000602082019050818103600083015261287f81612843565b9050919050565b7f4552433732313a20617070726f76652063616c6c6572206973206e6f7420746f60008201527f6b656e206f776e6572206e6f7220617070726f76656420666f7220616c6c0000602082015250565b60006128e2603e83611f39565b91506128ed82612886565b604082019050919050565b60006020820190508181036000830152612911816128d5565b9050919050565b7f4552433732313a207472616e736665722063616c6c6572206973206e6f74206f60008201527f776e6572206e6f7220617070726f766564000000000000000000000000000000602082015250565b6000612974603183611f39565b915061297f82612918565b604082019050919050565b600060208201905081810360008301526129a381612967565b9050919050565b7f4e487b7100000000000000000000000000000000000000000000000000000000600052601160045260246000fd5b60006129e482611fe0565b91506129ef83611fe0565b9250828203905081811115612a0757612a066129aa565b5b92915050565b7f4e487b7100000000000000000000000000000000000000000000000000000000600052603260045260246000fd5b7f4552433732313a20696e76616c696420746f6b656e2049440000000000000000600082015250565b6000612a72601883611f39565b9150612a7d82612a3c565b602082019050919050565b60006020820190508181036000830152612aa181612a65565b9050919050565b7f4552433732313a2061646472657373207a65726f206973206e6f74206120766160008201527f6c6964206f776e65720000000000000000000000000000000000000000000000602082015250565b6000612b04602983611f39565b9150612b0f82612aa8565b604082019050919050565b60006020820190508181036000830152612b3381612af7565b9050919050565b6000612b4582611fe0565b9150612b5083611fe0565b9250828201905080821115612b6857612b676129aa565b5b92915050565b600081905092915050565b6000612b8482611f2e565b612b8e8185612b6e565b9350612b9e818560208601611f4a565b80840191505092915050565b6000612bb68285612b79565b9150612bc28284612b79565b91508190509392505050565b7f4552433732313a207472616e736665722066726f6d20696e636f72726563742060008201527f6f776e6572000000000000000000000000000000000000000000000000000000602082015250565b6000612c2a602583611f39565b9150612c3582612bce565b604082019050919050565b60006020820190508181036000830152612c5981612c1d565b9050919050565b7f4552433732313a207472616e7366657220746f20746865207a65726f2061646460008201527f7265737300000000000000000000000000000000000000000000000000000000602082015250565b6000612cbc602483611f39565b9150612cc782612c60565b604082019050919050565b60006020820190508181036000830152612ceb81612caf565b9050919050565b7f4552433732313a20617070726f766520746f2063616c6c657200000000000000600082015250565b6000612d28601983611f39565b9150612d3382612cf2565b602082019050919050565b60006020820190508181036000830152612d5781612d1b565b9050919050565b7f4552433732313a207472616e7366657220746f206e6f6e20455243373231526560008201527f63656976657220696d706c656d656e7465720000000000000000000000000000602082015250565b6000612dba603283611f39565b9150612dc582612d5e565b604082019050919050565b60006020820190508181036000830152612de981612dad565b9050919050565b6000612dfb82611fe0565b91507fffffffffffffffffffffffffffffffffffffffffffffffffffffffffffffffff8203612e2d57612e2c6129aa565b5b600182019050919050565b7f4e487b7100000000000000000000000000000000000000000000000000000000600052601260045260246000fd5b6000612e7282611fe0565b9150612e7d83611fe0565b925082612e8d57612e8c612e38565b5b828204905092915050565b6000612ea382611fe0565b9150612eae83611fe0565b925082612ebe57612ebd612e38565b5b828206905092915050565b600081519050919050565b600082825260208201905092915050565b6000612ef082612ec9565b612efa8185612ed4565b9350612f0a818560208601611f4a565b612f1381611f74565b840191505092915050565b6000608082019050612f336000830187612075565b612f406020830186612075565b612f4d604083018561210b565b8181036060830152612f5f8184612ee5565b905095945050505050565b600081519050612f7981611e9f565b92915050565b600060208284031215612f9557612f94611e69565b5b6000612fa384828501612f6a565b91505092915050565b7f4552433732313a206d696e7420746f20746865207a65726f2061646472657373600082015250565b6000612fe2602083611f39565b9150612fed82612fac565b602082019050919050565b6000602082019050818103600083015261301181612fd5565b9050919050565b7f4552433732313a20746f6b656e20616c7265616479206d696e74656400000000600082015250565b600061304e601c83611f39565b915061305982613018565b602082019050919050565b6000602082019050818103600083015261307d81613041565b905091905056fea2646970667358221220a8310aa47a0d4771e1173f3769af241982aa240272600fa0137ee6629b43d30b64736f6c63430008110033",
  "immutableReferences": {},
  "source": "// SPDX-License-Identifier: MIT\r\npragma solidity ^0.8.0;\r\n\r\nimport \"@openzeppelin/contracts/token/ERC721/ERC721.sol\";\r\n\r\ncontract Land is ERC721 {\r\n    uint256 public cost = 1 ether;\r\n    uint256 public maxSupply = 5; // maximum number of plots that can be sold...\r\n    uint256 public totalSupply = 0; // or current supply; initializing this to zero...\r\n\r\n    struct Building {\r\n        string name;\r\n        address owner;\r\n        int256 posX;\r\n        int256 posY;\r\n        int256 posZ;\r\n        uint256 sizeX;\r\n        uint256 sizeY;\r\n        uint256 sizeZ;\r\n    }\r\n\r\n    Building[] public buildings; // storing all the Buildings inside an array naming `buildings`(i.e of type struct `Building`)\r\n\r\n    // `constructor` is just a function that gets called whenever we deploy this smart contract to the blockchain.\r\n    constructor(\r\n        string memory _name,\r\n        string memory _symbol,\r\n        uint256 _cost\r\n    ) ERC721(_name, _symbol) {\r\n        // name, symbol and cost for NFT(i.e plot of land)\r\n        cost = _cost;\r\n\r\n        // below we are adding `BUilding`s to our `buildings` array\r\n        buildings.push(\r\n            Building(\"City Hall\", address(0x0), 0, 0, 0, 10, 10, 10)\r\n        );\r\n        buildings.push(Building(\"Stadium\", address(0x0), 0, 10, 0, 10, 5, 3));\r\n        buildings.push(\r\n            Building(\"University\", address(0x0), 0, -10, 0, 10, 5, 3)\r\n        );\r\n        buildings.push(\r\n            Building(\"Shopping Plaza 1\", address(0x0), 10, 0, 0, 5, 25, 5)\r\n        );\r\n        buildings.push(\r\n            Building(\"Shopping Plaza 2\", address(0x0), -10, 0, 0, 5, 25, 5)\r\n        );\r\n        // As there are no owners of building in the starting, hence we have written `address(0x0)`\r\n    }\r\n\r\n    // below function is used to mint and buy new land...\r\n    function mint(uint256 _id) public payable {\r\n        uint256 supply = totalSupply;\r\n        require(supply <= maxSupply);\r\n        // for checking that the `Building` is not already bought by some other owner(i.e address) by just accessing our `buildings` array.\r\n        // As ID(i.e tokenID) of each `Building` starts from `1` but indexes that we have from our array starts from `0`. So we have to minus `1`.\r\n        // Also, we need address of the `Building's` owner as shown below...\r\n        require(buildings[_id - 1].owner == address(0x0));\r\n        require(msg.value >= cost); // checking the amount of `ether` send to payable `mint()` >= `Cost of Building`(i.e 1 ETH)\r\n\r\n        // NOTE: tokenID always starts from 1, but our array starts from 0\r\n\r\n        buildings[_id - 1].owner = msg.sender; // for accessing the address(i.e new owner) which calls this payable `mint()`\r\n        totalSupply = totalSupply + 1; // increasing the totalSupply(initially `0`) by `1`\r\n\r\n        _safeMint(msg.sender, _id); // this function taken from openzeppelin's ERC721 contract.\r\n    }\r\n\r\n    // below function for transferring ownership of the plot of land.\r\n    function transferFrom(\r\n        address from,\r\n        address to,\r\n        uint256 tokenId\r\n    ) public override {\r\n        // As this function is already implemented in the ERC721, but we want to improve on it so we use `override` keyword...\r\n        require(\r\n            _isApprovedOrOwner(_msgSender(), tokenId),\r\n            \"ERC721: transfer caller is not owner nor approved\"\r\n        ); // here we used `_msgSender()` to get `msg.sender` as it was given in the Openzeppelin Contracts.\r\n\r\n        // Update Building ownership\r\n        buildings[tokenId - 1].owner = to;\r\n\r\n        _transfer(from, to, tokenId);\r\n    }\r\n\r\n    function safeTransferFrom(\r\n        address from,\r\n        address to,\r\n        uint256 tokenId,\r\n        bytes memory _data\r\n    ) public override {\r\n        require(\r\n            _isApprovedOrOwner(_msgSender(), tokenId),\r\n            \"ERC721: transfer caller is not owner nor approved\"\r\n        ); // here we used `_msgSender()` to get `msg.sender` as it was given in the Openzeppelin Contracts.\r\n\r\n        // Updating old owner's address of the `Building` with the index number in the `buildings` array to the new owner's address.\r\n        buildings[tokenId - 1].owner = to;\r\n\r\n        _safeTransfer(from, to, tokenId, _data);\r\n    }\r\n\r\n    // Public View(i.e just for reading data from the blockchain and not for any transaction/change/writing on the blockchain) Functions\r\n\r\n    // below view function will return all the `Building` we have in the `buildings` array\r\n    function getBuildings() public view returns (Building[] memory) {\r\n        return buildings;\r\n    }\r\n\r\n    // below view function will return a specifically only one `Building` from the `buildings` array\r\n    function getBuilding(uint256 _id) public view returns (Building memory) {\r\n        return buildings[_id - 1];\r\n    }\r\n}\r\n",
  "sourcePath": "C:\\Users\\sumit\\Desktop\\web3\\metacity\\src\\contracts\\Land.sol",
  "compiler": {
    "name": "solc",
    "version": "0.8.17+commit.8df45f5f.Emscripten.clang"
  },
  "schemaVersion": "3.4.10",
  "updatedAt": "2022-12-02T12:04:14.199Z",
  "networkType": "ethereum",
  "devdoc": {
    "kind": "dev",
    "methods": {
      "approve(address,uint256)": {
        "details": "See {IERC721-approve}."
      },
      "balanceOf(address)": {
        "details": "See {IERC721-balanceOf}."
      },
      "getApproved(uint256)": {
        "details": "See {IERC721-getApproved}."
      },
      "isApprovedForAll(address,address)": {
        "details": "See {IERC721-isApprovedForAll}."
      },
      "name()": {
        "details": "See {IERC721Metadata-name}."
      },
      "ownerOf(uint256)": {
        "details": "See {IERC721-ownerOf}."
      },
      "safeTransferFrom(address,address,uint256)": {
        "details": "See {IERC721-safeTransferFrom}."
      },
      "setApprovalForAll(address,bool)": {
        "details": "See {IERC721-setApprovalForAll}."
      },
      "supportsInterface(bytes4)": {
        "details": "See {IERC165-supportsInterface}."
      },
      "symbol()": {
        "details": "See {IERC721Metadata-symbol}."
      },
      "tokenURI(uint256)": {
        "details": "See {IERC721Metadata-tokenURI}."
      },
      "transferFrom(address,address,uint256)": {
        "details": "See {IERC721-transferFrom}."
      }
    },
    "version": 1
  },
  "userdoc": {
    "kind": "user",
    "methods": {},
    "version": 1
  }
}